:10000000ACC078C291C2C4C0B8C1C2C0C1C0C0C077
:10001000BFC0A4C2BDC0BCC0BBC0BAC0B9C0B8C01C
:10002000B7C0B6C0B5C03CC144C154C15AC159C122
:1000300058C157C156C155C154C15BC161C16FC1DF
:10004000A6C3B0C3C1C3CCC3CBC3CAC3C9C3C8C38F
:10005000C7C3C6C3D2C3E2C3F2C30000000000019D
:100060000101010101010101020202020202020278
:100070000203030303030303030404040404040549
:10008000050505050606060606070707070808080A
:10009000080909090A0A0A0A0B0B0B0C0C0C0D0DB6
:1000A0000D0E0E0F0F0F1010111111121213131449
:1000B00014151516161717181819191A1A1B1C1CBF
:1000C0001D1D1E1F1F202021222223242525262717
:1000D0002728292A2B2B2C2D2E2F2F303132333449
:1000E0003536363738393A3B3C3D3E3F4041424356
:1000F00044464748494A4B4C4D4F50515253555630
:1001000057585A5B5C5E5F606263646667696A6CDD
:100110006D6E707173747678797B7C7E8081838458
:1001200086888A8B8D8F91929496989A9B9D9FA199
:10013000A3A5A7A9ABADAFB1B3B5B7B9BBBDBFC19F
:10014000C4C6C8CACCCFD1D3D6D8DADCDFE1E4E666
:10015000E8EBEDF0F2F5F7FAFCFF11241FBECFE556
:10016000D4E0DEBFCDBF10E0A0E6B0E0E6E3F9E00A
:1001700002C005900D92A837B107D9F720E0A8E793
:10018000B0E001C01D92A938B207E1F713D0D1C386
:1001900037CFFC0110826A30710530F080818F5FAB
:1001A00080836A507109F7CF618308958FB9779B77
:1001B000FECF08952FEF84E39CE0215080409040D3
:1001C000E1F700C000008EE287BB84E088BB15BA6F
:1001D0008FE084BB82B38C6182BB11BAAD98A598C5
:1001E00081E58DB98BB7806C8BBF95E095BF80ECB6
:1001F0008ABF83E083BF12BE81E88FBD8AE08EBDD7
:100200001DBC1CBC1BBC1ABC1FBC89B78F7389BF2B
:1002100082B5886082BD14BC95BD13BC82B5877061
:10022000E9F789B7806489BF89B7816089BF109277
:10023000820081E08093810087E090E065D32CE329
:10024000829FC001112481589F4F6FEF70E048D307
:100250006093840085B78F78806385BF7894DBE0F6
:1002600011E10FE080E1F82EC2E19DE0E92E2EE0E1
:10027000D22E3AE0C32E4CE0B42EAFB6F894809163
:100280006000882309F456C060918200862F90E0B8
:100290008D30910508F04AC0FC01ED5EFF4F0994D6
:1002A0006091800070E085E890E073DF60917F00EE
:1002B0000CC08BE090E028D3682F70E085E890E0D8
:1002C00068DF8AE090E020D3682F70E087E890E054
:1002D00060DF2EC0D0938500B092860060918100CF
:1002E00017C0D0938500C092860070E062507109FB
:1002F00010C0E0928500D092860089E090E006C0B0
:1003000000938500F092860088E090E0FDD2682F8F
:1003100070E087E890E03DDFC093870009C0D0938C
:1003200085001093860087E090E0CDCF1092820088
:1003300010926000AFBE9D99A0CF85B38F6085BB42
:1003400089B78E7F89BF80917D00882349F01DBCCD
:100350001CBC1BBC1ABC1FBC10927D0010927C0000
:1003600085B7806885BF889585B78F7785BF9D9B4A
:10037000E2CF89B7816089BFDECF1F920F920FB69F
:100380000F9211242F933F934F935F936F937F931B
:100390008F939F93AF93BF93CF93DF93EF93FF938D
:1003A00081E08093600080916200882379F0815021
:1003B0008093620081110AC01092820088E090E070
:1003C000A3D2882319F08CE38093620080917D0092
:1003D000882319F180917C008F5F80937C0090913D
:1003E000840089131AC010927C0080917D00815096
:1003F00080937D00E0917D00E095F0E0E65AFF4FAC
:10040000E491F0E0FBBDEABD80917D00811105C063
:100410001DBC1CBC1BBC1ABC1FBC80917E008F5F26
:100420008C3319F080937E0052C010927E0010929F
:1004300079001092780080917F008F5F8C3319F0E3
:1004400080937F0014C010927F00809180008F5FA6
:10045000883119F0809380000AC01092800080914A
:1004600081008F5F883009F481E080938100809162
:100470006300882361F18091810090E08150904079
:1004800043D2882321F18BE090E03ED2D82F8AE03E
:1004900090E03AD2C82F87E090E036D2C81728F40F
:1004A000D11101C0D8E1D150C45CC81B809180003B
:1004B000D8130DC080917F00C81309C08FEF8093BF
:1004C0007D001BBC1ABC1DBC1CBC81E88FBDFF910C
:1004D000EF91DF91CF91BF91AF919F918F917F91DC
:1004E0006F915F914F913F912F910F900FBE0F90A1
:1004F0001F9018951F920F920FB60F9211248F9391
:100500009F9380B382FB992790F981E0892780939C
:100510007A0010927900109278009F918F910F903D
:100520000FBE0F901F9018951F920F920FB60F924B
:1005300011248F939F9380B383FB992790F981E0D7
:10054000892780937B0010927900109278009F9108
:100550008F910F900FBE0F901F9018951F920F92C2
:100560000FB60F9211240F931F932F933F934F9326
:100570005F936F937F938F939F93AF93BF93EF930B
:10058000FF93CF93DF931F92CDB7DEB785B38F6014
:1005900085BB198280918300813041F480917E0077
:1005A00080FF02C0198202C080E8898380918300A5
:1005B0008330B1F49091630080918200913011F406
:1005C000882351F09DEF980F973048F490E08350C6
:1005D00090409AD1882319F080E8898301C019825C
:1005E000809162008823C9F080918300811108C046
:1005F00080918200813019F480E8898301C01982DA
:10060000E09183009981F0E0EB57FF4FE081F0E04B
:10061000EC59FF4F8081892B89831091610089E01B
:1006200090E072D1181B10936100809161008111DC
:1006300021C082E08093610089818095B7DD80913F
:10064000830045B323E030E0281B310981E090E0CE
:1006500002C0880F991F2A95E2F780959095842310
:1006600085BB809183008F5F80938300843011F479
:100670001092830080917800909179000397D9F4CB
:1006800080917A00811105C080917B00882309F454
:100690000EC18CE38093620081E0809360008091C2
:1006A0007D00882309F403C110927D001DBC1CBC91
:1006B0001BBC1ABC1FBC80917800909179000196F8
:1006C0008C3221E0920729F0909379008093780092
:1006D000F1C0109279001092780081E08093600060
:1006E000849911C080916200882369F08091820012
:1006F0008F5F8D3019F08093820005C010928200C8
:100700008CE38093620080917A00882349F1849B76
:1007100027C080917B00811128C0809182008111C7
:100720000BC0809180008F5F883119F0809380002A
:10073000A5C01092800014C0813009F09FC08BE0EA
:1007400090E0E2D061E0680F8BE090E0E5D08BE0D4
:1007500090E0DAD0883121F460E08BE090E0DCD0EA
:1007600080917B00882309F489C0849B87C0809195
:100770007A00811187C000918200802F90E08D3037
:10078000910508F07BC0FC01E05EFF4F0994809169
:100790007F008F5F8C3319F080937F008BC01092A5
:1007A0007F006CC08AE090E0AFD061E0680F8AE023
:1007B00090E0B2D08AE090E0A7D08C3309F05EC020
:1007C00060E08AE090E015C0809181008F5F883002
:1007D00019F0809381006EC081E0809381004EC04B
:1007E00010E003501040C8018FD0882321F060E052
:1007F000C80192D043C061E0FBCF1FB7F89489E0F5
:1008000090E082D061E0823009F0680F89E090E0EA
:1008100083D082E0809361001FBF30C088E090E009
:1008200073D061E0680F88E090E076D088E090E0D7
:100830006BD0823019F560E088E090E0DACF87E095
:1008400090E062D065E0680F87E090E065D087E0D7
:1008500090E05AD08F3120F06FE087E090E05CD0DC
:1008600087E090E051D02CE3829FC0011124815891
:100870009F4F6FEF70E034D06093840080917A00D6
:100880008823C1F080917B008823A1F0849B12C053
:1008900080918200823070F480916300882319F087
:1008A0001092630007C081E08093630003C084E07E
:1008B00090E00ACF0F90DF91CF91FF91EF91BF9120
:1008C000AF919F918F917F916F915F914F913F91E8
:1008D0002F911F910F910F900FBE0F901F901895A1
:1008E000AA1BBB1B51E107C0AA1FBB1FA617B70756
:1008F00010F0A61BB70B881F991F5A95A9F7809572
:100900009095BC01CD010895E199FECF9FBB8EBBB0
:10091000E09A99278DB30895262FE199FECF9FBBCA
:100920008EBB2DBB0FB6F894E29AE19A0FBE0196EA
:060930000895F894FFCFCA
:1009360001013C013F065B4F666D7D077F6F775E69
:080946006D7C50305473000079
:00000001FF
