:10000000ACC04BC264C2C4C08EC1C2C0C1C0C0C0FB
:10001000BFC077C2BDC0BCC0BBC0BAC0B9C0B8C049
:10002000B7C0B6C0B5C02FC137C147C14DC14CC163
:100030004BC14AC149C148C147C14EC154C162C147
:1000400070C37AC38BC396C395C394C393C392C33F
:1000500091C390C39CC3B0C3C0C3000000000001A3
:100060000101010101010101020202020202020278
:100070000203030303030303030404040404040549
:10008000050505050606060606070707070808080A
:10009000080909090A0A0A0A0B0B0B0C0C0C0D0DB6
:1000A0000D0E0E0F0F0F1010111111121213131449
:1000B00014151516161717181819191A1A1B1C1CBF
:1000C0001D1D1E1F1F202021222223242525262717
:1000D0002728292A2B2B2C2D2E2F2F303132333449
:1000E0003536363738393A3B3C3D3E3F4041424356
:1000F00044464748494A4B4C4D4F50515253555630
:1001000057585A5B5C5E5F606263646667696A6CDD
:100110006D6E707173747678797B7C7E8081838458
:1001200086888A8B8D8F91929496989A9B9D9FA199
:10013000A3A5A7A9ABADAFB1B3B5B7B9BBBDBFC19F
:10014000C4C6C8CACCCFD1D3D6D8DADCDFE1E4E666
:10015000E8EBEDF0F2F5F7FAFCFF11241FBECFE556
:10016000D4E0DEBFCDBF10E0A0E6B0E0E2EDF8E005
:1001700002C005900D92A637B107D9F720E0A6E797
:10018000B0E001C01D92A738B207E1F713D09FC3BA
:1001900037CFFC0110826A30710530F080818F5FAB
:1001A00080836A507109F7CF618308958FB9779B77
:1001B000FECF08952FEF84E39CE0215080409040D3
:1001C000E1F700C000008EE287BB84E088BB15BA6F
:1001D0008FE084BB82B38C6182BB11BA81E58DB99B
:1001E0008BB7806C8BBF95E095BF80EC8ABF83E0B6
:1001F00083BF12BE81E88FBD8AE08EBD1DBC1CBCD2
:100200001BBC1ABC1FBC89B78F7389BF82B58860BD
:1002100082BD14BC95BD13BC82B58770E9F789B760
:10022000806489BF89B7816089BF1092800081E0B6
:1002300080937F0087E090E035D32CE3829FC0015C
:10024000112481589F4F6FEF70E018D360938200A4
:100250007894DBE011E10FE080E1F82EC2E19DE04F
:10026000E92E2EE0D22E3AE0C32E4CE0B42E60915F
:100270008000862F90E08D30910508F04AC0FC0187
:10028000ED5EFF4F099460917E0070E083E890E09E
:1002900080DF60917D000CC08BE090E003D3682F7D
:1002A00070E083E890E075DF8AE090E0FBD2682F91
:1002B00070E085E890E06DDF2EC0D0938300B092AF
:1002C000840060917F0017C0D0938300C0928400A7
:1002D00070E06250710910C0E0928300D0928400F7
:1002E00089E090E006C000938300F092840088E0EB
:1002F00090E0D8D2682F70E085E890E04ADFC093A4
:10030000850009C0D09383001093840087E090E0BB
:10031000CDCF1092800085B7806885BF889585B75E
:100320008F7785BFA4CF1F920F920FB60F92112423
:100330002F933F934F935F936F937F938F939F93ED
:10034000AF93BF93CF93DF93EF93FF9380916100BF
:10035000882379F081508093610081110AC0109246
:10036000800088E090E09ED2882319F08CE380938F
:10037000610080917B00882319F180917A008F5F62
:1003800080937A009091820089131AC010927A00AB
:1003900080917B00815080937B00E0917B00E09511
:1003A000F0E0E65AFF4FE491F0E0FBBDEABD80913A
:1003B0007B00811105C01DBC1CBC1BBC1ABC1FBC32
:1003C00080917C008F5F8C3319F080937C0052C049
:1003D00010927C00109277001092760080917D0040
:1003E0008F5F8C3319F080937D0014C010927D00D4
:1003F00080917E008F5F883119F080937E000AC063
:1004000010927E0080917F008F5F883009F481E038
:1004100080937F0080916200882361F180917F004A
:1004200090E0815090403ED2882321F18BE090E013
:1004300039D2D82F8AE090E035D2C82F87E090E0FB
:1004400031D2C81728F4D11101C0D8E1D150C45C11
:10045000C81B80917E00D8130DC080917D00C81309
:1004600009C08FEF80937B001BBC1ABC1DBC1CBC59
:1004700081E88FBDFF91EF91DF91CF91BF91AF9157
:100480009F918F917F916F915F914F913F912F91AC
:100490000F900FBE0F901F9018951F920F920FB6DE
:1004A0000F9211248F939F9380B382FB992790F929
:1004B00081E089278093780010927700109276006F
:1004C0009F918F910F900FBE0F901F9018951F92C4
:1004D0000F920FB60F9211248F939F9380B383FBDB
:1004E000992790F981E0892780937900109277000D
:1004F000109276009F918F910F900FBE0F901F90DA
:1005000018951F920F920FB60F9211240F931F93FD
:100510002F933F934F935F936F937F938F939F930B
:10052000AF93BF93EF93FF93CF93DF931F92CDB71A
:10053000DEB78FE085BB198280918100813041F464
:1005400080917C0080FF02C0198202C080E889830C
:10055000809181008330B1F490916200809180009D
:10056000913011F4882351F09DEF980F973048F4A3
:1005700090E08350904096D1882319F080E88983D9
:1005800001C01982809161008823C9F080918100A7
:10059000811108C080918000813019F480E889833E
:1005A00001C01982E09181009981F0E0ED57FF4F81
:1005B000E081F0E0ED59FF4F8081892B8983109114
:1005C000600089E090E06ED1181B19F01093600074
:1005D00021C082E08093600089818095E7DD809171
:1005E000810045B323E030E0281B310981E090E031
:1005F00002C0880F991F2A95E2F780959095842371
:1006000085BB809181008F5F80938100843011F4DD
:100610001092810080917600909177000397C1F449
:1006200080917800811105C080917900882309F4B8
:100630000CC18CE38093610080917B00882309F4D6
:1006400004C110927B001DBC1CBC1BBC1ABC1FBC8F
:10065000809176009091770001968C3221E092078C
:1006600029F09093770080937600F2C01092770083
:1006700010927600849911C080916100882369F0FE
:10068000809180008F5F8D3019F08093800005C0CD
:10069000109280008CE38093610080917800882321
:1006A00049F1849B27C080917900811128C08091F5
:1006B000800081110BC080917E008F5F883119F01E
:1006C00080937E00A9C010927E0014C0813009F092
:1006D000A3C08BE090E0E6D061E0680F8BE090E093
:1006E000E9D08BE090E0DED0883121F460E08BE04F
:1006F00090E0E0D080917900882309F48DC0849B3C
:100700008BC08091780081118BC000918000802F78
:1007100090E08D30910508F07FC0FC01E05EFF4F56
:10072000099480917D008F5F8C3319F080937D0058
:100730008FC010927D0070C08AE090E0B3D061E07D
:10074000680F8AE090E0B6D08AE090E0ABD08C33BE
:1007500009F062C060E08AE090E015C080917F00FF
:100760008F5F883019F080937F0072C081E08093A2
:100770007F0052C010E003501040C80193D088237E
:1007800021F060E0C80196D047C061E0FBCF89E06E
:1007900090E088D061E0680F89E090E08BD089E03C
:1007A00090E080D0833021F461E089E090E082D055
:1007B00082E08093600030C088E090E073D061E018
:1007C000680F88E090E076D088E090E06BD08230CF
:1007D00019F560E088E090E0D6CF87E090E062D045
:1007E00065E0680F87E090E065D087E090E05AD040
:1007F0008F3120F06FE087E090E05CD087E090E000
:1008000051D02CE3829FC001112481589F4F6FEF7C
:1008100070E034D060938200809178008823C1F02A
:10082000809179008823A1F0849B12C08091800080
:10083000823070F480916200882319F01092620077
:1008400007C081E08093620003C084E090E009CF9C
:100850000F90DF91CF91FF91EF91BF91AF919F9159
:100860008F917F916F915F914F913F912F911F9148
:100870000F910F900FBE0F901F901895AA1BBB1BD6
:1008800051E107C0AA1FBB1FA617B70710F0A61B90
:10089000B70B881F991F5A95A9F780959095BC01B1
:1008A000CD010895E199FECF9FBB8EBBE09A9927B9
:1008B0008DB30895262FE199FECF9FBB8EBB2DBB34
:1008C0000FB6F894E29AE19A0FBE01960895F89453
:0208D000FFCF58
:1008D200023C013F065B4F666D7D077F6F775E6D61
:0608E2007C50305473004D
:00000001FF
